:020000040000FA
:100C000022EF1CF00000000092EF1EF00F0EC16EEC
:060C1000070EB46E120095
:080C180007EF1FF0D9CFE5FF43
:100C2000E1CFD9FF00C0E5FF01C0E5FF02C0E5FF4D
:100C300003C0E5FF04C0E5FF05C0E5FF06C0E5FF12
:100C400007C0E5FF08C0E5FF09C0E5FF0AC0E5FFF2
:100C50000BC0E5FF0CC0E5FF0DC0E5FF0EC0E5FFD2
:100C60000FC0E5FF10C0E5FF11C0E5FF12C0E5FFB2
:100C700013C0E5FF14C0E5FF15C0E5FF16C0E5FF92
:100C800017C0E5FF18C0E5FF19C0E5FF020EDBCF76
:100C900000F0030EDBCF01F0040EDBCF02F0050EF7
:100CA000DBCF03F0060EDBCF04F0070EDBCF05F041
:100CB000080EDBCF06F0090EDBCF07F00A0EDBCF04
:100CC00008F0096A020E0A6E03C0E9FF04C0F3FFD0
:100CD0000550D4EC21F00B6E0B5002E1D4EF0AF07A
:100CE0000C6A0B50250A02E0BBEF0AF00B6A0D6A92
:100CF000032A02E3044A052A03C0E9FF04C0F3FF04
:100D00000550D4EC21F00E6E0E50D8B4D4EF0AF09A
:100D10000E50250A02E1BBEF0AF00E502D0A06E143
:100D2000032A02E3044A052A010E0B6E03C00EF0EB
:100D300004C00FF005C010F00EC0E9FF0FC0F3FFB4
:100D40001050D4EC21F0300A06E10E2A02E30F4ADB
:100D5000102A0B82F1D70EC0E9FF0FC0F3FF10502D
:100D6000D4EC21F0116E300E115C13E33A0E115CDD
:100D700010E20D500A0DF3CF0DF0D00E11260D50DC
:100D8000126E115012240D6E0E2A02E30F4A102A21
:100D9000E2D70EC003F00FC004F010C005F00EC083
:100DA000E9FF0FC0F3FF1050D4EC21F02E0A34E11C
:100DB0000E50010F036E000E0F20046E000E102067
:100DC000056E0A6A03C00EF004C00FF005C010F0F3
:100DD0000EC0E9FF0FC0F3FF1050D4EC21F0116EEC
:100DE000300E115C13E33A0E115C10E20A500A0D4A
:100DF000F3CF0AF0D00E11260A50126E11501224B1
:100E00000A6E0E2A02E30F4A102AE2D70EC003F040
:100E10000FC004F010C005F003C0E9FF04C0F3FFE9
:100E20000550D4EC21F00E6E660A01E040D0065069
:100E3000040F0F6E000E0720106E000E0820116EBA
:100E40000FC006F010C007F011C008F0FC0E0F260E
:100E5000FF0E102211220FC0E9FF10C0F3FF115046
:100E6000C6EC20F00F6EF3CF10F0F4CF11F0E9CF05
:100E700012F00A50E56EE56A0B50E56E0D50E56E16
:100E80001250E56E1150E56E1050E56E0F50E56E94
:100E90000250E56E0150E56E0050E56E24EC0BF05B
:100EA0000F6E0B0EE1260F500926CEEF0AF00E5002
:100EB000730A01E045D00650030F0F6E000E0720A5
:100EC000106E000E0820116E0FC006F010C007F063
:100ED00011C008F0FD0E0F26FF0E102211220FC0C8
:100EE000E9FF10C0F3FF1150E6EC20F00F6EF3CFD6
:100EF00010F0F4CF11F01010111006E1000E116E79
:100F0000350E106E860E0F6E0B50E56E0D50E56EB1
:100F10001150E56E1050E56E0F50E56E0250E56E13
:100F20000150E56E0050E56E74EC11F00F6E080E86
:100F3000E1260950106E0F501024096ECEEF0AF012
:100F40000E506C0A06E1032A02E3044A052A010E48
:100F50000C6E03C0E9FF04C0F3FF0550D4EC21F090
:100F60000E6E750A01E06CD00C5023E00650040FA1
:100F70000F6E000E0720106E000E0820116E0FC0BD
:100F800006F010C007F011C008F0FC0E0F26FF0E8F
:100F9000102211220FC0E9FF10C0F3FF1150C6EC60
:100FA00020F00F6EF3CF10F0F4CF11F0E9CF12F074
:100FB00024D00650020F136E000E0720146E000E90
:100FC0000820156E13C006F014C007F015C008F015
:100FD000FE0E1326FF0E1422152213C0E9FF14C0C3
:100FE000F3FF15505FEC21F0136EF3CF14F013C034
:100FF0000FF014C010F0116A126A610EE56EE56A16
:101000000B50E56E0D50E56EE56A0A0EE56E0C506C
:10101000E56E1250E56E1150E56E1050E56E0F5002
:10102000E56E0250E56E0150E56E0050E56E04EC91
:101030000EF0136E0E0EE12613500926CEEF0AF0C5
:101040000E50640A04E00E50690A01E075D00C509D
:1010500023E00650040F136E000E0720146E000EDE
:101060000820156E13C006F014C007F015C008F074
:10107000FC0E1326FF0E1422152213C0E9FF14C024
:10108000F3FF1550C6EC20F0136EF3CF14F0F4CF3D
:1010900015F0E9CF16F024D00650020F176E000E9F
:1010A0000720186E000E0820196E17C006F018C031
:1010B00007F019C008F0FE0E1726FF0E182219229D
:1010C00017C0E9FF18C0F3FF19505FEC21F0176E4D
:1010D000F3CF18F017C013F018C014F0156A166A91
:1010E00013C00FF014C010F015C011F016C012F0AC
:1010F000610EE56EE56A0B50E56E0D50E56E010E72
:10110000E56E0A0EE56E0C50E56E1250E56E11505C
:10111000E56E1050E56E0F50E56E0250E56E015021
:10112000E56E0050E56E04EC0EF0136E0E0EE12637
:1011300013500926CEEF0AF00E50780A04E00E5044
:10114000700A01E073D00C5023E00650040F136EB8
:10115000000E0720146E000E0820156E13C006F056
:1011600014C007F015C008F0FC0E1326FF0E142261
:10117000152213C0E9FF14C0F3FF1550C6EC20F090
:10118000136EF3CF14F0F4CF15F0E9CF16F024D09E
:101190000650020F176E000E0720186E000E082072
:1011A000196E17C006F018C007F019C008F0FE0E3F
:1011B0001726FF0E1822192217C0E9FF18C0F3FFE7
:1011C00019505FEC21F0176EF3CF18F017C013F031
:1011D00018C014F0156A166A13C00FF014C010F08E
:1011E00015C011F016C012F0610EE56EE56A0B50E5
:1011F000E56E0D50E56EE56A100EE56E0C50E56E7D
:101200001250E56E1150E56E1050E56E0F50E56E10
:101210000250E56E0150E56E0050E56E04EC0EF0F4
:10122000136E0E0EE12613500926B8D10E50580A3F
:1012300004E00E50500A01E073D00C5023E0065039
:10124000040F136E000E0720146E000E0820156E9A
:1012500013C006F014C007F015C008F0FC0E1326EA
:10126000FF0E1422152213C0E9FF14C0F3FF15501E
:10127000C6EC20F0136EF3CF14F0F4CF15F0E9CFE5
:1012800016F024D00650020F176E000E0720186EBD
:10129000000E0820196E17C006F018C007F019C01C
:1012A00008F0FE0E1726FF0E1822192217C0E9FFBC
:1012B00018C0F3FF19505FEC21F0176EF3CF18F050
:1012C00017C013F018C014F0156A166A13C00FF097
:1012D00014C010F015C011F016C012F0410EE56EEA
:1012E000E56A0B50E56E0D50E56EE56A100EE56E91
:1012F0000C50E56E1250E56E1150E56E1050E56E23
:101300000F50E56E0250E56E0150E56E0050E56E3F
:1013100004EC0EF0136E0E0EE126135009263ED19A
:101320000E50620A01E073D00C5023E00650040F07
:10133000136E000E0720146E000E0820156E13C0E9
:1013400006F014C007F015C008F0FC0E1326FF0EBF
:101350001422152213C0E9FF14C0F3FF1550C6EC88
:1013600020F0136EF3CF14F0F4CF15F0E9CF16F0A0
:1013700024D00650020F176E000E0720186E000EC4
:101380000820196E17C006F018C007F019C008F041
:10139000FE0E1726FF0E1822192217C0E9FF18C0EB
:1013A000F3FF19505FEC21F0176EF3CF18F017C060
:1013B00013F018C014F0156A166A13C00FF014C0A9
:1013C00010F015C011F016C012F0610EE56EE56A5E
:1013D0000B50E56E0D50E56EE56A020EE56E0C50A1
:1013E000E56E1250E56E1150E56E1050E56E0F502F
:1013F000E56E0250E56E0150E56E0050E56E04ECBE
:101400000EF0136E0E0EE12613500926C7D00E50B3
:101410006F0A01E073D00C5023E00650040F136EE6
:10142000000E0720146E000E0820156E13C006F083
:1014300014C007F015C008F0FC0E1326FF0E14228E
:10144000152213C0E9FF14C0F3FF1550C6EC20F0BD
:10145000136EF3CF14F0F4CF15F0E9CF16F024D0CB
:101460000650020F176E000E0720186E000E08209F
:10147000196E17C006F018C007F019C008F0FE0E6C
:101480001726FF0E1822192217C0E9FF18C0F3FF14
:1014900019505FEC21F0176EF3CF18F017C013F05E
:1014A00018C014F0156A166A13C00FF014C010F0BB
:1014B00015C011F016C012F0610EE56EE56A0B5012
:1014C000E56E0D50E56EE56A080EE56E0C50E56EB2
:1014D0001250E56E1150E56E1050E56E0F50E56E3E
:1014E0000250E56E0150E56E0050E56E04EC0EF022
:1014F0000C6E0E0EE1260C50092650D00E50630AD9
:1015000001E04CD00650020F0C6E000E07200E6E4C
:10151000000E08200F6E0CC006F00EC007F00FC0C2
:1015200008F0FE0E0C26FF0E0E220F220CC0E9FF63
:101530000EC0F3FF0F505FEC21F00601596F5A6B9C
:101540000B50E56E0D50E56E800EE56E060EE56EF5
:10155000590EE56E0250E56E0150E56E0050E56EE5
:1015600074EC11F00B6E080EE12609500C6E0B5056
:101570000C24096E13D003C0E9FF04C0F3FF05502B
:10158000D4EC21F0E56E0250E56E0150E56E00509E
:10159000E56EA6EC19F0040EE126092A032A02E3FF
:1015A000044A052A64EF06F000500110021014E00E
:1015B00000C0E9FF01C0F3FF0250E6EC20F0006E2E
:1015C000F3CF01F0F4CF02F0E56A00C0E9FF01C0FB
:1015D000F3FF02504BEC22F00950E4CF19F0E4CFB6
:1015E00018F0E4CF17F0E4CF16F0E4CF15F0E4CF15
:1015F00014F0E4CF13F0E4CF12F0E4CF11F0E4CF15
:1016000010F0E4CF0FF0E4CF0EF0E4CF0DF0E4CF14
:101610000CF0E4CF0BF0E4CF0AF0E4CF09F0E4CF14
:1016200008F0E4CF07F0E4CF06F0E4CF05F0E4CF14
:1016300004F0E4CF03F0E4CF02F0E4CF01F0E4CF14
:1016400000F0E4CFD9FF1200D9CFE5FFE1CFD9FFF9
:1016500000C0E5FF01C0E5FF02C0E5FF03C0E5FFF4
:1016600004C0E5FF05C0E5FF06C0E5FF07C0E5FFD4
:1016700008C0E5FF09C0E5FF0AC0E5FF0BC0E5FFB4
:101680000CC0E5FF0DC0E5FF0EC0E5FF0FC0E5FF94
:1016900010C0E5FF11C0E5FF12C0E5FF13C0E5FF74
:1016A00014C0E5FF15C0E5FF16C0E5FF17C0E5FF54
:1016B00018C0E5FF19C0E5FF1AC0E5FF1BC0E5FF34
:1016C0001CC0E5FF1DC0E5FF1EC0E5FF1FC0E5FF14
:1016D00020C0E5FF020EDBCF00F0030EDBCF01F0F0
:1016E000040EDBCF02F0050EDBCF03F0060EDBCFDE
:1016F00004F0070EDBCF05F0080EDBCF06F0090E75
:10170000DBCF07F00A0EDBCF08F00C0EDBCF09F0C1
:101710000A6A0B6A0C6A0D6A0E6A0F6A106A116A0D
:10172000060E136E2C0E126E800E146E060E166EC2
:10173000380E156E800E176E186A0B0E196E035058
:101740000601446F0450456F0550466F0650476FC1
:10175000D88047AFD89023E3075012E008A210D0FA
:101760002D0EE56E0250E56E0150E56E0050E56EFF
:10177000A6EC19F0040EE126010E186E07060FD034
:101780002D0EE56E12C0E9FF13C0F3FF14504BECB1
:1017900022F0122A02E3134A142A0A0E196E0601D5
:1017A00046354735036E046A810E03264451046EA4
:1017B0004551056E7F0E4615066E1A6A068E035059
:1017C000800F610F21E32B0E06012C6F690E2D6F28
:1017D0006E0E2E6F660E2F6F306B0850E56E075041
:1017E000E56E800EE56E060EE56E2C0EE56E02507F
:1017F000E56E0150E56E0050E56E74EC11F01B6E65
:10180000080EE1261B50BBD10350800F970F09E251
:101810000A6A0B6A0C6A0D6A0E6A0F6A106A116A0C
:101820009DD00350800F690F25E303C01BF01C6A95
:1018300003BE1C68E90E1B26D8A01C0604C00AF0D3
:1018400005C00BF006C00CF01AC00DF01B5011E0E3
:1018500009E6E86CD8900A360B360C360D36010FC7
:10186000FAE37CD0D8900D320C320B320A32010FE1
:10187000FAE374D0D88003AED890D8B04AD003C071
:101880001BF01C6A03BE1C681B5017081D6E000E5F
:101890001C5404C00AF005C00BF006C00CF01AC0BE
:1018A0000DF01D5011E009E6E86CD8900D320C32B5
:1018B0000B320A32010FFAE307D0D8900A360B3602
:1018C0000C360D36010FFAE31B4A1C2A04C01DF02A
:1018D00005C01EF006C01FF01AC020F01B5011E01A
:1018E00009E6E86CD8901D361E361F362036010FEB
:1018F000FAE307D0D89020321F321E321D32010F7A
:10190000FAE31D500E6E1E500F6E1F50106E116ABE
:1019100025D01A6A1B6A03BE1B68034A1B2A1B1EBA
:10192000036CD8B41B2A04C00EF005C00FF006C02B
:1019300010F01AC011F0035011E009E6E86CD890DD
:10194000113210320F320E32010FFAE307D0D89065
:101950000E360F3610361136010FFAE30A500B100F
:101960000C100D100FE1300EE56E12C0E9FF13C030
:10197000F3FF14504BEC22F0122A02E3134A142A0C
:10198000190678D015C003F016C004F017C005F092
:10199000066A19C015F00A500B100C100D10D8B4BF
:1019A0003CD0E56AE56AE56A0A0EE56E0D50E56E23
:1019B0000C50E56E0B50E56E0A50E56E69EC16F0C2
:1019C000166E080EE126300E162616C0E5FF03C07F
:1019D000E9FF04C0F3FF05504BEC22F0032A02E3B9
:1019E000044A052AE56AE56AE56A0A0EE56E0D50C5
:1019F000E56E0C50E56E0B50E56E0A50E56EFCECA2
:101A000016F00A6EF3CF0BF0F4CF0CF0E9CF0DF027
:101A1000080EE126062A1506BED715C019F012C019
:101A20000AF013C00BF014C00CF006C00DF006064F
:101A30000D501AE0FF0E03260422052203C0E9FF21
:101A400004C0F3FF0550D4EC21F00D6E0DC0E5FF8E
:101A50000AC0E9FF0BC0F3FF0C504BEC22F00A2A3E
:101A6000E4E30B4A0C2AE1D70AC012F00BC013F0D2
:101A70000CC014F0070E095C02E3060E096E095053
:101A8000195CD8A019C009F0010E095CD8A057D084
:101A90002E0EE56E12C0E9FF13C0F3FF14504BEC9D
:101AA00022F0122A02E3134A142A12C003F013C0D0
:101AB00004F014C005F0066A0950065C3AE20E50C4
:101AC0000E240A6E0F340B6E10340C6E11340D6E32
:101AD0000A500A260B360C360D360A500A260B36EB
:101AE0000C360D360E500E24156E0F34166E103453
:101AF000176E1134196E15500A240E6E16500B20F5
:101B00000F6E17500C20106E19500D200A6E300EFB
:101B10000A260AC0E5FF03C0E9FF04C0F3FF055031
:101B20004BEC22F0032A02E3044A052A116A062A32
:101B3000C3D703C012F004C013F005C014F0E56A67
:101B400012C0E9FF13C0F3FF14504BEC22F0085011
:101B5000E56E0750E56E800EE56E060EE56E2C0E06
:101B6000E56E0250E56E0150E56E0050E56E74ECD6
:101B700011F0006E080EE126185000260050E4CF48
:101B800020F0E4CF1FF0E4CF1EF0E4CF1DF0E4CF4F
:101B90001CF0E4CF1BF0E4CF1AF0E4CF19F0E4CF4F
:101BA00018F0E4CF17F0E4CF16F0E4CF15F0E4CF4F
:101BB00014F0E4CF13F0E4CF12F0E4CF11F0E4CF4F
:101BC00010F0E4CF0FF0E4CF0EF0E4CF0DF0E4CF4F
:101BD0000CF0E4CF0BF0E4CF0AF0E4CF09F0E4CF4F
:101BE00008F0E4CF07F0E4CF06F0E4CF05F0E4CF4F
:101BF00004F0E4CF03F0E4CF02F0E4CF01F0E4CF4F
:101C000000F0E4CFD9FF1200D9CFE5FFE1CFD9FF33
:101C100000C0E5FF01C0E5FF02C0E5FF03C0E5FF2E
:101C200004C0E5FF05C0E5FF06C0E5FF07C0E5FF0E
:101C300008C0E5FF09C0E5FF0AC0E5FF0BC0E5FFEE
:101C40000CC0E5FF0DC0E5FF0EC0E5FF0FC0E5FFCE
:101C500010C0E5FF11C0E5FF12C0E5FF13C0E5FFAE
:101C600014C0E5FF15C0E5FF16C0E5FF17C0E5FF8E
:101C700018C0E5FF19C0E5FF1AC0E5FF1BC0E5FF6E
:101C8000020EDBCF00F0030EDBCF01F0040EDBCF42
:101C900002F0050EDBCF03F0060EDBCF04F0070EDB
:101CA000DBCF05F0080EDBCF06F0090EDBCF07F027
:101CB0000A0EDBCF08F00B0EDBCF09F00C0EDBCFEA
:101CC0000AF00D0EDBCF0BF00F0EDBCF0CF00D6A20
:101CD0000E6A03C00FF004C010F005C011F006C07A
:101CE00012F003500410051006101BE1300E06011F
:101CF000206F216B0B50E56E0A50E56E800EE56E8D
:101D0000060EE56E200EE56E0250E56E0150E56EA2
:101D10000050E56E74EC11F0136E080EE1261350BE
:101D2000ECD0095036E008500A0A33E107501CE0B5
:101D30000350096E0450136E0550146E0650156E54
:101D4000D88015AED89010E3010E0D6E151C126EE2
:101D5000141C116E131C106E091C0F6E0F2A04E167
:101D6000102A02E1114A122A075013E1D88004AE6A
:101D7000D8900FE3010E0D6E041E036CD8B4042A34
:101D800003C00FF004C010F0E86A04BEFF0E116E2D
:101D9000126E060E046E2B0E036E800E056EE56A43
:101DA00003C0E9FF04C0F3FF4BEC22F003C006F0D0
:101DB00004C007F005C009F00F50101011101210E8
:101DC000D8B45AD008C013F0146A156A166AE56AC6
:101DD000E56AE56A1350E56E1250E56E1150E56E46
:101DE0001050E56E0F50E56E69EC16F0176EF3CFEC
:101DF00018F0F4CF19F0E9CF1AF0080EE126000E22
:101E00001A5C08E1000E195C05E1000E185C02E1A5
:101E10000A0E175C06E30CC01BF0C60E1B261B50F7
:101E20001726FF0E062607220922300E172617C096
:101E3000E5FF06C0E9FF07C0F3FF09504BEC22F0B5
:101E40001650E56E1550E56E1450E56E1350E56EB4
:101E50001250E56E1150E56E1050E56E0F50E56EB4
:101E6000FCEC16F00F6EF3CF10F0F4CF11F0E9CFC9
:101E700012F0080EE126A0D706C003F007C004F058
:101E800009C005F00D5021E00A5012E00BA210D05D
:101E90002D0EE56E0250E56E0150E56E0050E56EC8
:101EA000A6EC19F0040EE126010E0E6E0A060DD006
:101EB000FF0E0326042205222D0EE56E03C0E9FF66
:101EC00004C0F3FF05504BEC22F00B50E56E0A50B6
:101ED000E56E0550E56E0450E56E0350E56E025068
:101EE000E56E0150E56E0050E56E74EC11F0006E89
:101EF000080EE1260E5000260050E4CF1BF0E4CF80
:101F00001AF0E4CF19F0E4CF18F0E4CF17F0E4CFE3
:101F100016F0E4CF15F0E4CF14F0E4CF13F0E4CFE3
:101F200012F0E4CF11F0E4CF10F0E4CF0FF0E4CFE3
:101F30000EF0E4CF0DF0E4CF0CF0E4CF0BF0E4CFE3
:101F40000AF0E4CF09F0E4CF08F0E4CF07F0E4CFE3
:101F500006F0E4CF05F0E4CF04F0E4CF03F0E4CFE3
:101F600002F0E4CF01F0E4CF00F0E4CFD9FF12009B
:101F7000D9CFE5FFE1CFD9FF00C0E5FF01C0E5FF04
:101F800002C0E5FF03C0E5FF04C0E5FF05C0E5FFB3
:101F900006C0E5FF07C0E5FF08C0E5FF020EDBCF86
:101FA00000F0000E0601585D02E1400E575D05E2AB
:101FB00057C601F058C602F003D0400E016E026A07
:101FC0000044FE0B036E0328040DF450036EF3CFA0
:101FD00000F0000E0024046E040E0320056E000EB7
:101FE0000024066E040E0320076E06C0E9FF07C03A
:101FF000EAFFEFCF06F0FC0E061604C0E9FF05C0AD
:10200000EAFF06C0EFFF000E0024046E040E03205A
:10201000056E000E0024066E040E0320076E06C037
:10202000E9FF07C0EAFFEFCF06F0030E0214061225
:1020300004C0E9FF05C0EAFF06C0EFFF000E002460
:10204000046E040E0320056E044A052A0150066E34
:1020500004C0E9FF05C0EAFF06C0EFFF000E00263E
:10206000040E0322020E0026D8B0032A400E046E8E
:10207000050E056E00C0E9FF03C0EAFF04C0EEFFD5
:1020800005C0EFFF01500601575F0250585B050E77
:102090000601526F400E516F800E536F006A00C0F0
:1020A00003F0046A0250045C02E10150035C2BE27D
:1020B00051C603F052C604F053C605F04EC606F0F2
:1020C0004FC607F050C608F006C0E9FF07C0F3FF8F
:1020D0000850D4EC21F0066E06014E2B03E34F3F6F
:1020E00001D0502B06C0E5FF03C0E9FF04C0F3FF99
:1020F00005504BEC22F00601512B03E3523F01D077
:10210000532B002ACCD7E4CF08F0E4CF07F0E4CF7C
:1021100006F0E4CF05F0E4CF04F0E4CF03F0E4CF21
:1021200002F0E4CF01F0E4CF00F0E4CFD9FF1200D9
:10213000D9CFE5FFE1CFD9FF00C0E5FF01C0E5FF42
:1021400002C0E5FF03C0E5FF04C0E5FF05C0E5FFF1
:1021500006C0E5FF07C0E5FF08C0E5FF09C0E5FFD1
:102160000AC0E5FF0BC0E5FF0CC0E5FF0DC0E5FFB1
:102170000EC0E5FF0FC0E5FF020EDBCF00F0030E3F
:10218000DBCF01F0040EDBCF02F0050EDBCF03F056
:10219000060EDBCF04F0070EDBCF05F0080EDBCF19
:1021A00006F0200E076E086A06C009F00A6A0B6A7C
:1021B0000C6AE56AE56AE56A0950E56E0350E56E6A
:1021C0000250E56E0150E56E0050E56E69EC16F0C8
:1021D0000D6E080EE126300E0D263A0E0D5C05E35D
:1021E0000D500E6E270E0E240D6EFF0E07260822D0
:1021F000000E07240E6E060E08200F6E0EC0E9FFBB
:102200000FC0EAFF0DC0EFFF0C50E56E0B50E56EFE
:102210000A50E56E0950E56E0350E56E0250E56E1A
:102220000150E56E0050E56EFCEC16F0006EF3CF49
:1022300001F0F4CF02F0E9CF03F0080EE1260050E0
:10224000011002100310D8A4AFD707C000F008C0D7
:1022500001F004C002F005C003F000C004F001C0AA
:1022600005F0004A012A000E0426060E052204C0CD
:10227000E9FF05C0EAFFEFCF04F002C0E9FF03C0A9
:10228000EAFF04C0EFFF024A032A000E015C02E1EC
:10229000200E005CE2E302C0E9FF03C0EAFF000E8B
:1022A000EF6AE4CF0FF0E4CF0EF0E4CF0DF0E4CF0F
:1022B0000CF0E4CF0BF0E4CF0AF0E4CF09F0E4CF68
:1022C00008F0E4CF07F0E4CF06F0E4CF05F0E4CF68
:1022D00004F0E4CF03F0E4CF02F0E4CF01F0E4CF68
:1022E00000F0E4CFD9FF1200D9CFE5FFE1CFD9FF4D
:1022F00000C0E5FF01C0E5FF02C0E5FF03C0E5FF48
:1023000004C0E5FF05C0E5FF06C0E5FF07C0E5FF27
:1023100008C0E5FF09C0E5FF0AC0E5FF0BC0E5FF07
:102320000CC0E5FF0DC0E5FF0EC0E5FF020EDBCFE0
:1023300000F0030EDBCF01F0040EDBCF02F0050E40
:10234000DBCF03F0060EDBCF04F0070EDBCF05F08A
:10235000080EDBCF06F0090EDBCF07F0086A200E6F
:10236000096E065022E00A6A03C00BF004C00CF0AC
:1023700005C00DF00BC0E9FF0CC0F3FF0D50D4EC0D
:1023800021F00E6E0E5006E00A2A0B2AF3E30C4AE7
:102390000D2AF0D706500A5C02E3066A02D00A5002
:1023A000065E07A202D0300E096E07B019D0076A88
:1023B00006C00AF00A5005E107C008F00AC006F09E
:1023C0000FD00950E56E0250E56E0150E56E0050E9
:1023D000E56EA6EC19F0040EE126072A0A06EAD7F4
:1023E00008C007F003C0E9FF04C0F3FF0550D4ECB8
:1023F00021F0086E085012E00850E56E0250E56EBC
:102400000150E56E0050E56EA6EC19F0040EE126D1
:10241000072A032AE7E3044A052AE4D707C003F0A2
:1024200006C004F004500FE00950E56E0250E56E5E
:102430000150E56E0050E56EA6EC19F0040EE126A1
:10244000032A0406EFD7F36A0350E4CF0EF0E4CF7B
:102450000DF0E4CF0CF0E4CF0BF0E4CF0AF0E4CFC2
:1024600009F0E4CF08F0E4CF07F0E4CF06F0E4CFC2
:1024700005F0E4CF04F0E4CF03F0E4CF02F0E4CFC2
:1024800001F0E4CF00F0E4CFD9FF1200D9CFE5FF8F
:10249000E1CFD9FF00C0E5FF01C0E5FF02C0E5FFC5
:1024A00003C0E5FF04C0E5FF020EDBCF00F0030E22
:1024B000DBCF01F0A20E0024026E036A350E032268
:1024C000046A000E042202C0F6FF03C0F7FF04C036
:1024D000F8FF0900F5CF02F0030E025CD8B09AD0E5
:1024E000FA6AFB6A0234FA36E834FA36FC0BFE0F5D
:1024F000E56E240EFA22000EFB22E450F96E85EF01
:1025000012F0B2EF12F0DFEF12F0015015E08E0E74
:102510000024026E036A350E0322046A000E0422B0
:1025200002C0F6FF03C0F7FF04C0F8FF0900F5CFB3
:1025300002F0025092126ED08E0E0024026E036AD8
:10254000350E0322046A000E042202C0F6FF03C007
:10255000F7FF04C0F8FF0900F5CF02F00250FF08B2
:10256000921658D0015015E08E0E0024026E036AB8
:10257000350E0322046A000E042202C0F6FF03C0D7
:10258000F7FF04C0F8FF0900F5CF02F002509312E4
:1025900041D08E0E0024026E036A350E0322046AB7
:1025A000000E042202C0F6FF03C0F7FF04C0F8FFCC
:1025B0000900F5CF02F00250FF0893162BD001500E
:1025C00015E08E0E0024016E026A350E0222036AA7
:1025D000000E032201C0F6FF02C0F7FF03C0F8FFA0
:1025E0000900F5CF01F00150941214D0016A026A7B
:1025F0008E0E0026350E0122000E022200C0F6FFCC
:1026000001C0F7FF02C0F8FF0900F5CF00F000504D
:10261000FF089416E4CF04F0E4CF03F0E4CF02F017
:10262000E4CF01F0E4CF00F0E4CFD9FF1200D9CF1E
:10263000E5FFE1CFD9FF00C0E5FF01C0E5FF02C023
:10264000E5FF03C0E5FF04C0E5FF020EDBCF00F0AD
:10265000030EDBCF01F0A20E0024026E036A350EDA
:102660000322046A000E042202C0F6FF03C0F7FF33
:1026700004C0F8FF0900F5CF02F0030E025CD8B0E9
:102680009AD0FA6AFB6A0234FA36E834FA36FC0B5E
:10269000A00FE56E260EFA22000EFB22E450F96E22
:1026A00056EF13F083EF13F0B0EF13F0015015E085
:1026B0008E0E0024026E036A350E0322046A000E99
:1026C000042202C0F6FF03C0F7FF04C0F8FF0900B0
:1026D000F5CF02F0025089126ED08E0E0024026EE9
:1026E000036A350E0322046A000E042202C0F6FFBC
:1026F00003C0F7FF04C0F8FF0900F5CF02F0025055
:10270000FF08891658D0015015E08E0E0024026E85
:10271000036A350E0322046A000E042202C0F6FF8B
:1027200003C0F7FF04C0F8FF0900F5CF02F0025024
:102730008A1241D08E0E0024026E036A350E0322E7
:10274000046A000E042202C0F6FF03C0F7FF04C0B3
:10275000F8FF0900F5CF02F00250FF088A162BD0CF
:10276000015015E08E0E0024016E026A350E022221
:10277000036A000E032201C0F6FF02C0F7FF03C088
:10278000F8FF0900F5CF01F001508B1214D0016A57
:10279000026A8E0E0026350E0122000E022200C0B3
:1027A000F6FF01C0F7FF02C0F8FF0900F5CF00F007
:1027B0000050FF088B16E4CF04F0E4CF03F0E4CF21
:1027C00002F0E4CF01F0E4CF00F0E4CFD9FF120033
:1027D00000C0E5FF01C0E5FF0E0EE56E6CEC1DF0DC
:1027E0000601496FF3CF4AF6E6520A0EE56E040E73
:1027F000E56EC00EE56E4A51E56E4951E56E03EC9B
:102800001EF0050EE126E56E800EE56E040EE56E07
:10281000C00EE56EA9EC1FF0040EE126E56A640E19
:10282000E56E08EC20F0E652E6520601666B7DECA0
:1028300022F0006E00500CE0800EE56E060EE56E94
:10284000670EE56E33EC20F00601666F030EE1269D
:1028500006016651D8B462D067C600F00050800F00
:102860004F0FD8A054D00050800F490FD8B04FD090
:10287000CF0E0026FA6AFB6A0034FA36E834FA36DC
:10288000FC0B920FE56E280EFA22000EFB22E4509C
:10289000F96E55EF14F05EEF14F066EF14F06FEF81
:1028A00014F077EF14F080EF14F0010EE56E0A0ECD
:1028B000E56E17EC13F0E652E65229D0E56A0A0EEF
:1028C000E56E17EC13F0E652E65221D0010EE56EEC
:1028D0000B0EE56E17EC13F0E652E65218D0E56ADF
:1028E0000B0EE56E17EC13F0E652E65210D0010E17
:1028F000E56E0C0EE56E17EC13F0E652E65207D0CB
:10290000E56A0C0EE56E17EC13F0E652E652E56A46
:102910000A0EE56E08EC20F0E652E652670E06015C
:102920006625006E016A060E012200C0E9FF01C0A3
:10293000EAFF000EEF6AE4CF01F0E4CF00F01200EE
:10294000D9CFE5FFE1CFD9FF00C0E5FF01C0E5FF2A
:1029500002C0E5FF03C0E5FF04C0E5FF05C0E5FFD9
:1029600006C0E5FF07C0E5FF08C0E5FF09C0E5FFB9
:10297000020EDBCF00F00044FE0B040DF450026E9B
:10298000F3CF00F0000E0024016E040E0220036E4F
:1029900001C0E9FF03C0EAFFEFCF01F0030E01160B
:1029A0000150056E046A000E0026040E0222004A41
:1029B000022A00C0E9FF02C0EAFFEFCF00F0016A7F
:1029C0000450001205500112005006015727015013
:1029D0005823050E06014F6F400E4E6F800E506F4C
:1029E000026A036A0150035C02E10050025C2CE2BF
:1029F00051C604F052C605F053C606F04EC607F0A5
:102A00004FC608F050C609F007C0E9FF08C0F3FF41
:102A10000950D4EC21F0076E06014E2B03E34F3F23
:102A200001D0502B07C0E5FF04C0E9FF05C0F3FF4C
:102A300006504BEC22F00601512B03E3523F01D02C
:102A4000532B024A032ACED7E4CF09F0E4CF08F093
:102A5000E4CF07F0E4CF06F0E4CF05F0E4CF04F0D4
:102A6000E4CF03F0E4CF02F0E4CF01F0E4CF00F0D4
:102A7000E4CFD9FF120000C0E5FF01C0E5FF02C0AE
:102A8000E5FF03C0E5FF04C0E5FF05C0E5FF1F0E3D
:102A900005010015006E02C501F0005012E1015061
:102AA000010A01E076D0010E0601606F05010151B7
:102AB000030A04E1010E0601626F6BD00601626B2E
:102AC00068D00050020A01E064D00F0E0501041521
:102AD000006E800E0415026E0150D8A45AD000502A
:102AE000D8B457D0010E0601606F040E036E000EBD
:102AF000016E800E046E0050080DF450056EF3CF89
:102B000000F0005001240601516F05500320526F60
:102B1000E86A05BEE8680420536F025005E0040E21
:102B20005127000E5223532305010151030A10E1DE
:102B300051C600F052C601F053C603F0840EE56E94
:102B400000C0E9FF01C0F3FF03504BEC22F021D09D
:102B50000250010A0FE151C600F052C601F053C6FF
:102B600002F0E56A00C0E9FF01C0F3FF02504BEC40
:102B700022F00FD051C600F052C601F053C602F049
:102B8000880EE56E00C0E9FF01C0F3FF02504BEC78
:102B900022F0E4CF05F0E4CF04F0E4CF03F0E4CF7B
:102BA00002F0E4CF01F0E4CF00F01200D9CFE5FF4E
:102BB000E1CFD9FF00C0E5FF01C0E5FF02C0E5FF9E
:102BC00003C0E5FF020EDBCF00F0A20E0024016E71
:102BD000026A350E0222036A000E032201C0F6FFCC
:102BE00002C0F7FF03C0F8FF0900F5CF01F0030EA4
:102BF000015CD8B062D0FA6AFB6A0134FA36E83474
:102C0000FA36FC0B140FE56E2C0EFA22000EFB2296
:102C1000E450F96E10EF16F02AEF16F044EF16F0BC
:102C20008E0E0024016E026A350E0222036A000E27
:102C3000032201C0F6FF02C0F7FF03C0F8FF09003E
:102C4000F5CF01F080500116015002E0010E36D0A0
:102C5000E86A34D08E0E0024016E026A350E02221C
:102C6000036A000E032201C0F6FF02C0F7FF03C093
:102C7000F8FF0900F5CF01F081500116015002E084
:102C8000010E1CD0E86A1AD0016A026A8E0E002674
:102C9000350E0122000E022200C0F6FF01C0F7FF30
:102CA00002C0F8FF0900F5CF00F082500016005076
:102CB00002E0010E03D0E86A01D0E86AE4CF03F035
:102CC000E4CF02F0E4CF01F0E4CF00F0E4CFD9FF8D
:102CD0001200D9CFE5FFE1CFD9FF00C0E5FF01C069
:102CE000E5FF02C0E5FF03C0E5FF04C0E5FF05C046
:102CF000E5FF06C0E5FF07C0E5FF08C0E5FF09C026
:102D0000E5FF0AC0E5FF020EDBCF00F0030EDBCFCC
:102D100001F0040EDBCF02F0050EDBCF03F0060E50
:102D2000DBCF04F0070EDBCF05F0080EDBCF06F09B
:102D3000090EDBCF07F0086A096A0750800BE844E8
:102D40000A6E0A501BE10450042605360636073683
:102D50000750035C08E10650025C05E10550015C88
:102D600002E10450005C06E2D890073206320532D8
:102D7000043204D0092A09C008F0DFD70750035CE9
:102D800008E10650025C05E10550015C02E10450D7
:102D9000005C08E30450005E0550015A0650025AD8
:102DA0000750035AD890073206320532043208C061
:102DB00009F008060950E2E103C0E9FF02C0F4FF90
:102DC00001C0F3FF0050E4CF0AF0E4CF09F0E4CFF4
:102DD00008F0E4CF07F0E4CF06F0E4CF05F0E4CF4D
:102DE00004F0E4CF03F0E4CF02F0E4CF01F0E4CF4D
:102DF00000F0E4CFD9FF1200D9CFE5FFE1CFD9FF32
:102E000000C0E5FF01C0E5FF02C0E5FF03C0E5FF2C
:102E100004C0E5FF05C0E5FF06C0E5FF07C0E5FF0C
:102E200008C0E5FF09C0E5FF0AC0E5FF0BC0E5FFEC
:102E30000CC0E5FF0DC0E5FF020EDBCF00F0030E76
:102E4000DBCF01F0040EDBCF02F0050EDBCF03F089
:102E5000060EDBCF04F0070EDBCF05F0080EDBCF4C
:102E600006F0090EDBCF07F0086A096A0A6A0B6AE6
:102E7000200E0C6E0350800BE8440D6E00500026AF
:102E80000136023603360850082609360A360B3654
:102E90000D50D8A4088007500B5C08E106500A5C6E
:102EA00005E10550095C02E10450085C09E30450A7
:102EB000085E0550095A06500A5A07500B5A0080FE
:102EC0000C2ED8D703C0E9FF02C0F4FF01C0F3FF06
:102ED0000050E4CF0DF0E4CF0CF0E4CF0BF0E4CFE2
:102EE0000AF0E4CF09F0E4CF08F0E4CF07F0E4CF34
:102EF00006F0E4CF05F0E4CF04F0E4CF03F0E4CF34
:102F000002F0E4CF01F0E4CF00F0E4CFD9FF1200EB
:102F1000D9CFE5FFE1CFD9FF00C0E5FF01C0E5FF54
:102F200002C0E5FF03C0E5FF04C0E5FF05C0E5FF03
:102F300006C0E5FF07C0E5FF08C0E5FF09C0E5FFE3
:102F4000020EDBCF00F0030EDBCF01F0040EDBCF6F
:102F500002F0036A06016351050A02E0E86A4BD0F9
:102F6000040108BF47D0400E095DD8A009C4E8FF9E
:102F7000046A04010951045C20E204500024056E37
:102F8000E86A0120066EE86A0220076E800E0424BB
:102F9000086E096A050E092208C0E9FF09C0EAFFA8
:102FA000EFCF08F008C0E5FF05C0E9FF06C0F3FF5A
:102FB00007504BEC22F0042ADCD704C003F0400E8B
:102FC00004010815086F006A08BD002A0050D88067
:102FD000E866D890006A00360050010BE840E840EF
:102FE000F46E0851BF0BF410086F400E096F880E85
:102FF0000811086F0350E4CF09F0E4CF08F0E4CFE4
:1030000007F0E4CF06F0E4CF05F0E4CF04F0E4CF1E
:1030100003F0E4CF02F0E4CF01F0E4CF00F0E4CF1E
:10302000D9FF120000C0E5FF01C0E5FF02C0E5FFC7
:1030300003C0E5FF04C0E5FF05C0E5FF1F0E050165
:103040000015006E0501406B416B005013E1010E4D
:103050000601606F0601615104E0010E0501401197
:10306000406F06016251D8B44CD0020E05014011E8
:10307000406F47D00050010A04E1010E0601606F65
:1030800040D00050020A01E03CD00F0E05010415AB
:10309000006E800E0415016E010E0601606F040EB5
:1030A000036E000E026E800E046E0050080DF45088
:1030B000056EF3CF00F0005002240601516F055059
:1030C0000320526FE86A05BEE8680420536F015080
:1030D00005E0040E5127000E5223532351C600F081
:1030E00052C601F053C602F000C0E9FF01C0F3FF71
:1030F0000250D4EC21F0006E00A403D0010E0501B3
:10310000406F060160510BE0050E06014F6F400E47
:103110004E6F800E506F020E0601576F586BE4CF52
:1031200005F0E4CF04F0E4CF03F0E4CF02F0E4CF05
:1031300001F0E4CF00F01200D9CFE5FFE1CFD9FFD5
:1031400000C0E5FF01C0E5FF02C0E5FF03C0E5FFE9
:1031500004C0E5FF05C0E5FF06C0E5FF07C0E5FFC9
:1031600008C0E5FF09C0E5FF020EDBCF00F0030E4B
:10317000DBCF01F0040EDBCF02F0050EDBCF03F056
:10318000046A06016351050A02E0E86A47D00401B7
:103190000CBF43D0410E035C02E3400E036E056A90
:1031A0000350055C1DE2C00E0524066E076A050E7D
:1031B000072205500024086EE86A0120096EE86ABB
:1031C000022008C0E9FF09C0F3FFD4EC21F0086E2B
:1031D00006C0E9FF07C0EAFF08C0EFFF052AE0D7F5
:1031E00005C004F0055004010D6F400E0C150C6F66
:1031F000006A0CBD002A0050D880E866D890006AAA
:1032000000360050010BE840E840F46E0C51BF0B53
:10321000F4100C6F880E0C110C6F0450E4CF09F001
:10322000E4CF08F0E4CF07F0E4CF06F0E4CF05F0F8
:10323000E4CF04F0E4CF03F0E4CF02F0E4CF01F0F8
:10324000E4CF00F0E4CFD9FF120000C0E5FF01C0D9
:10325000E5FF02C0E5FF03C0E5FF05010051800A5C
:1032600001E06BD003C500F002C501F00050010A77
:103270000FE1010E0601606F000E0601506F350E62
:103280004F6F1E0E4E6F120E0601576F586B55D0C2
:103290000050020A17E1010E0601606F000E0601E0
:1032A000506F350E4F6F300E4E6F320EF66E350E7C
:1032B000F76E000EF86E0900F5CF57F60900F5CF4E
:1032C00058F63BD00050030A32E1010E0601606F50
:1032D0000150030DF450026EF3CF01F0036A7C0E2F
:1032E0000126350E0222000E032201C0F6FF02C0A5
:1032F000F7FF03C0F8FF0900F5CF4EF60900F5CF40
:103300004FF60900F5CF50F64EC601F04FC602F059
:1033100050C603F001C0E9FF02C0F3FF0350D4EC34
:1033200021F0016E01C057F60601586B06D000501F
:10333000060A03E1010E0601606FE4CF03F0E4CF5B
:1033400002F0E4CF01F0E4CF00F01200D9CFE5FFA6
:10335000E1CFD9FF00C0E5FF01C0E5FF02C0E5FFF6
:1033600003C0E5FF04C0E5FF05C0E5FF06C0E5FFBB
:10337000020EDBCF00F0030EDBCF01F0040EDBCF3B
:1033800002F0050EDBCF03F000500110021033E015
:1033900000C0E9FF01C0F3FF0250E6EC20F0046E2C
:1033A000F3CF05F0F4CF06F003C0E5FF04C0E9FF5A
:1033B00005C0F3FF06504BEC22F000C0E9FF01C04E
:1033C000F3FF0250E6EC20F0046EF3CF05F0F4CFEB
:1033D00006F0042A02E3054A062A04C0E5FF05C0F8
:1033E000F4FF06C0F6FF00C0E9FF01C0F3FF025082
:1033F00023EC22F016D00350E56EF2CFE5FFF29EEB
:103400000500200EFD6E340EFE6E000EFF6EE4BE53
:10341000F28E4DC6FBFF4CC6FAFF06014B51F96E0A
:10342000E652E4CF06F0E4CF05F0E4CF04F0E4CFB9
:1034300003F0E4CF02F0E4CF01F0E4CF00F0E4CFFA
:10344000D9FF120000C0E5FF01C500F005010051E1
:10345000600BD8A461D00050050A09E1010E0601F5
:10346000606F040E0601636F02C55BF655D0005015
:10347000060A03E125EC19F04FD00050090A12E1C9
:10348000010E0601606F02C564F60601645104E195
:10349000040E0601636F40D0050E0601636FB1ECA8
:1034A00021F03AD00050080A0FE1010E0601606FCA
:1034B000060E06014F6F640E4E6F800E506F010EA8
:1034C0000601576F586B28D0005003E112EC18F03A
:1034D00023D00050010A03E00050030A03E13BEC53
:1034E00015F01AD000500A0A11E1010E0601606FB2
:1034F0000501406B050E06014F6F400E4E6F800EAA
:10350000506F010E0601576F586B06D000500B0A22
:1035100003E1010E0601606FE4CF00F0120012011A
:103520000002FF00FF40D804AAFE000000010001D5
:1035300009022000010100C0140904000002FFFF7D
:10354000FF0007050102400000070581024000005E
:103550000403090416034A00500020004D004100F6
:103560004E0044004F004E0020001203500069003E
:103570006E006700750069006E006F0050350054E2
:1035800035006A350000286E756C6C290000010258
:103590000408102040804080010204010204082039
:1035A00010000101010101010101020202020200F9
:1035B000000000000000E806E56E630EEEEC1AF075
:1035C000E4500BE000D0E56E630EEEEC1AF000D094
:1035D00000D00000E450E82EF6D71200E806000004
:1035E000E85007E000D000D000D000D00000E82E66
:1035F000FAD71200D9CFE5FFE1CFD9FF00C0E5FF30
:1036000001C0E5FF02C0E5FF03C0E5FF04C0E5FF20
:10361000020EDBCF00F0030EDBCF01F0040EDBCF98
:1036200002F000500B0A20E000500C0A38E10C0EAA
:10363000BD6ED8900230036E0130006ED890033218
:1036400000320050BE6E006A030E0214036EF00ECC
:103650000016003A033A03140026BDCF04F00450CC
:1036600000120050BD6E1BD00C0EBA6ED890023006
:10367000036E0130006ED890033200320050BB6EF2
:10368000016A030E0216F00E0116013A023A021404
:103690000126BACF00F0005001120150BA6E9E927E
:1036A000E4CF04F0E4CF03F0E4CF02F0E4CF01F084
:1036B000E4CF00F0E4CFD9FF1200D9CFE5FFE1CF8E
:1036C000D9FF00C0E5FF01C0E5FF02C0E5FF03C070
:1036D000E5FF04C0E5FF05C0E5FF06C0E5FF020EFB
:1036E000DBCF00F0030EDBCF01F0040EDBCF02F0E6
:1036F000050EDBCF03F0060EDBCF04F0070EDBCFA9
:1037000005F0080EDBCF06F0D88003AED89015E3A5
:1037100006500A0A12E104C0E9FF05C0EAFF2D0EB7
:10372000EF6E044A052A031E021E011E006C05E10D
:10373000012A03E1022AD8B4032A0650E56E055097
:10374000E56E0450E56E0350E56E0250E56E0150E3
:10375000E56E0050E56E98EC10F0070EE126E4CF20
:1037600006F0E4CF05F0E4CF04F0E4CF03F0E4CFBB
:1037700002F0E4CF01F0E4CF00F0E4CFD9FF120073
:1037800000C0E5FF04010451006E009E0050046F6C
:103790000051006E009E0050006F0601656B06012F
:1037A000606B06015C6B0601576B586B22EC1AF0DC
:1037B000060160510BE1400E0401016F000E026F23
:1037C000050E036F840E006F046F38D0050100AF43
:1037D00026D0060158510501075D04E10601575145
:1037E0000501065D04E206C557F607C558F6000E4A
:1037F000E56AB8EC0FF0E652020E0601656F400E66
:103800000401016F000E026F050E036F800E006F42
:10381000400E066F050E076FC80E046F0FD0010E25
:103820000601656F0401056BC80E046F400E016F41
:10383000400E026F050E036FC80E006F6D98E4CF47
:1038400000F0120011EEFFF021EEFFF0F86AA68EF4
:10385000A69CBF0EE96E0E0EEA6E0068ED6A00507F
:10386000FDE1DC0EF66E440EF76E000EF86E0900F8
:10387000F5CF05F00900F5CF06F034D00900F5CFFB
:1038800000F00900F5CF01F00900F5CF02F00900C2
:103890000900F5CFE9FF0900F5CFEAFF09000900AB
:1038A0000900F5CF03F00900F5CF04F00900090085
:1038B000F6CF07F0F7CF08F0F8CF09F000C0F6FF19
:1038C00001C0F7FF02C0F8FF03D00900F5CFEEFFFB
:1038D0000306FBE20406F9E207C0F6FF08C0F7FFA3
:1038E00009C0F8FF0506CAE20606C8E275EC21F039
:1038F000FFD7D9CFE5FFE1CFD9FF00C0E5FF01C079
:10390000E5FF02C0E5FF03C0E5FF04C0E5FF05C019
:10391000E5FF020EDBCF54F6030EDBCF55F6040EA7
:10392000DBCF56F6050EDBCF00F0060EDBCF01F045
:10393000070EDBCF02F0080EDBCF03F0090EDBCF62
:1039400004F00A0EDBCF05F00550E56E0450E56E7D
:103950000350E56E0250E56E0150E56E0050E56ED5
:10396000800EE56E060EE56E540EE56E0EEC06F06A
:10397000006E090EE1260050E4CF05F0E4CF04F01C
:10398000E4CF03F0E4CF02F0E4CF01F0E4CF00F0A5
:10399000E4CFD9FF120000C0E5FF6CB422D03C0E8A
:1039A00004010015006E0040E8403F0B0D0A03E1E2
:1039B000C0EC1BF03ED006016551010A0FE1000E7C
:1039C000E56AA0EC14F0E652040100AD03D0880EC5
:1039D000006F2FD0C80E0401006F2BD032EC22F004
:1039E00028D0006A6CB4002A0050010A22E16E500F
:1039F0000BE106016351040A07E102C56EFF6E5038
:103A000003E1030E0601636F06016551020A0FE12F
:103A1000000EE56AB8EC0FF0E652040104AD03D0E5
:103A2000880E046F06D0C80E0401046F02D032EC79
:103A300022F0E4CF00F01200D9CFE5FFE1CFD9FFAB
:103A400000C0E5FF01C0E5FF02C0E5FF03C0E5FFE0
:103A500004C0E5FF05C0E5FF020EDBCF4BF6030E09
:103A6000DBCF4CF6040EDBCF4DF6050EDBCF00F0BE
:103A7000060EDBCF01F0070EDBCF02F0080EDBCF26
:103A800003F0090EDBCF04F00A0EDBCF05F0055082
:103A9000E56E0450E56E0350E56E0250E56E015090
:103AA000E56E0050E56E000EE56AE56AE56A0EEC2B
:103AB00006F0006E090EE1260050E4CF05F0E4CFD9
:103AC00004F0E4CF03F0E4CF02F0E4CF01F0E4CF60
:103AD00000F0E4CFD9FF1200D9CFE5FFE1CFD9FF45
:103AE00000C0E5FF01C0E5FF02C0E5FF03C0E5FF40
:103AF000020EDBCF00F00D0E005C0BE3150E005C38
:103B000008E2F30E0024016E0144E844FC0BC26E8F
:103B100007D0060E005C04E20044E844FC0BC26ED1
:103B2000C280090E006E016A0000FF0E002601220D
:103B300000500110F9E1C282C2B2FED7C4CF00F03A
:103B4000016A0050036E026AC3CF00F0016A0050A0
:103B5000022601500322C29003C0F3FF0250E4CFBB
:103B600003F0E4CF02F0E4CF01F0E4CF00F0E4CFC3
:103B7000D9FF1200D9CFE5FFE1CFD9FF00C0E5FFA3
:103B800001C0E5FF02C0E5FF03C0E5FF04C0E5FF9B
:103B9000050ED924006E000EDA20016E800E026E32
:103BA000030E0026000E01220222020ED924036E0B
:103BB000000EDA20046E0250E56E0150E56E0050F2
:103BC000E56E070EDBCFE5FF060EDBCFE5FF050E4A
:103BD000DBCFE5FF800EE56E0450E56E0350E56E29
:103BE0000EEC06F0006E090EE1260050E4CF04F062
:103BF000E4CF03F0E4CF02F0E4CF01F0E4CF00F033
:103C0000E4CFD9FF1200D9CFE5FFE1CFD9FF00C043
:103C1000E5FF01C0E5FF02C0E5FF03C0E5FF04C00A
:103C2000E5FF05C0E5FF06C0E5FF020EDBCF00F0B3
:103C3000030EDBCF01F0040EDBCF02F0050EDBCF6D
:103C400003F0060EDBCF04F0E86A01BEFF0E056E3E
:103C5000066E0450E56E0350E56E0250E56E0650A8
:103C6000E56E0550E56E0150E56E0050E56E5DECC9
:103C70001BF0070EE126E4CF06F0E4CF05F0E4CF19
:103C800004F0E4CF03F0E4CF02F0E4CF01F0E4CF9E
:103C900000F0E4CFD9FF1200D9CFE5FFE1CFD9FF83
:103CA00000C0E5FF01C0E5FF02C0E5FF020ED92418
:103CB000006E000EDA20016E800E026E030E0026EA
:103CC000000E012202220250E56E0150E56E005006
:103CD000E56E040EDBCFE5FF030EDBCFE5FF020E42
:103CE000DBCFE5FF800EE56E040EE56E800EE56E1F
:103CF00079EC1CF0006E090EE1260050E56E800E96
:103D0000E56E040EE56E800EE56E9CEC18F0040E78
:103D1000E126E4CF02F0E4CF01F0E4CF00F0E4CFFD
:103D2000D9FF1200D8CFE5FFE0CFE5FFE56EF3CF76
:103D3000E5FFF4CFE5FFE9CFE5FFEACFE5FFFACFF6
:103D4000E5FFFBCFE5FFD9CFE5FFE1CFD9FFF6CF08
:103D5000E5FFF7CFE5FFF8CFE5FFF5CFE5FF56EC40
:103D600022F0E4CFF5FFE4CFF8FFE4CFF7FFE4CF94
:103D7000F6FFE4CFD9FFE4CFFBFFE4CFFAFFE4CFB7
:103D8000EAFFE4CFE9FFE4CFF4FFE4CFF3FFE45030
:103D9000E4CFE0FFE4CFD8FF1000D9CFE5FFE1CFBB
:103DA000D9FF00C0E5FF01C0E5FF02C0E5FF03C089
:103DB000E5FF04C0E5FF020EDBCF00F0030EDBCF12
:103DC00001F0040EDBCF02F0050EDBCF03F0060E90
:103DD000DBCF04F00450E56E0350E56E0250E56E53
:103DE000E56AE56A0150E56E0050E56E98EC10F06A
:103DF000070EE126E4CF04F0E4CF03F0E4CF02F0B5
:103E0000E4CF01F0E4CF00F0E4CFD9FF1200D8CF27
:103E1000E5FFE0CFE5FFE56EF3CFE5FFF4CFE5FF8B
:103E2000E9CFE5FFEACFE5FFFACFE5FFFBCFE5FFFE
:103E3000D9CFE5FFE1CFD9FFF6CFE5FFF7CFE5FF1B
:103E4000F8CFE5FFF5CFE5FFE4CFF5FFE4CFF8FFCE
:103E5000E4CFF7FFE4CFF6FFE4CFD9FFE4CFFBFFD9
:103E6000E4CFFAFFE4CFEAFFE4CFE9FFE4CFF4FFC9
:103E7000E4CFF3FFE450E4CFE0FFE4CFD8FF10003D
:103E800000C0E5FF060163512EE068A403D069B4C9
:103E900079EC22F0006A6DB2002A0050010A23E09A
:103EA00068A003D069B083EC20F068A803D069B89B
:103EB000C3EC21F068AC03D069BC80EC22F068AAA6
:103EC00003D069BA14EC22F068A202D069B26892F9
:103ED000030E0601635D07E368A605D069A603D05B
:103EE000CBEC1CF06896E4CF00F01200F29EF29C3E
:103EF0006D6A6F6A706A716A726A736A746A756AE7
:103F0000766A776A786A796A7A6A7B6A7C6A7D6A95
:103F10007E6A7F6A070EE56ED00EE56E08EC20F033
:103F2000E652E652140E6F6E0601636B0601626B79
:103F30000601646B06016351050A05E049EC21F0B6
:103F400040EC1FF0F7D7A19AA08AA28AF28EF28CD9
:103F50001200D9CFE5FFE1CFD9FF00C0E5FF01C0D6
:103F6000E5FF02C0E5FF03C0E5FF020EDBCF00F076
:103F7000030EDBCF01F0040EDBCF02F0050EDBCF2A
:103F800003F00350E56E0250E56E0150E56E0050FF
:103F9000E56E9CEC18F0006E040EE1260050E4CFB4
:103FA00003F0E4CF02F0E4CF01F0E4CF00F0E4CF7F
:103FB000D9FF1200E56A0A0EE56E46EC12F0E652F1
:103FC000E652E56A0B0EE56E46EC12F0E652E6525A
:103FD000E56A0C0EE56E46EC12F0E652E652010E72
:103FE000E56E0D0EE56E46EC12F0E652E652010E5D
:103FF000E56E0E0EE56E46EC12F0E652E652010E4C
:10400000E56E110EE56E46EC12F0E652E652120035
:10401000D9CFE5FFE1CFD9FF00C0E5FF01C0E5FF43
:1040200002C0E5FF03C0E5FF020EDBCF00F0030E88
:10403000DBCF01F0026A036A0150035C02E1005029
:10404000025C06E20C0EDBEC1AF0024A032AF4D7FB
:10405000E4CF03F0E4CF02F0E4CF01F0E4CF00F0CE
:10406000E4CFD9FF1200D9CFE5FFE1CFD9FF00C0DF
:10407000E5FF01C0E5FF02C0E5FF020EDBCF00F067
:10408000030EDBCF01F0040EDBCF02F00250E56E31
:104090000150E56E0050E56E88EC17F0006E030EDF
:1040A000E1260050E4CF02F0E4CF01F0E4CF00F0CD
:1040B000E4CFD9FF1200D9CFE5FFE1CFD9FF00C08F
:1040C000E5FF01C0E5FF02C0E5FF03C0E5FF020E0A
:1040D000DBCF00F0030EDBCF01F0026A036A015070
:1040E000035C02E10050025C03E2024A032AF7D7B4
:1040F000E4CF03F0E4CF02F0E4CF01F0E4CF00F02E
:10410000E4CFD9FF120000C0E5FF6A6A686A9F0E1B
:104110006B6E7B0E696E6E6A160E706E006A68B604
:10412000002A0050010A02E16896F8D76D9832EC37
:1041300022F00601626B0601616B0601646B030EDF
:104140000601636FE4CF00F01200D9CFE5FFE1CFA5
:10415000D9FF00C0E5FF01C0E5FF020EDBCF00F094
:104160000050E56ED6EC15F0016EE652017001507C
:10417000E56E0050E56E17EC13F0E652E652E4CF20
:1041800001F0E4CF00F0E4CFD9FF1200E8AE0AD08E
:10419000F3CFEAFFEE50EECFF3FFEECFF4FFEECF1A
:1041A000E9FF1200E8BC88EF22F0E9CFF6FFF3CF79
:1041B000F7FFF86E0900F5500900F5CFF3FF09008D
:1041C000F5CFF4FF0900F5CFE9FF1200E8AE08D003
:1041D000F3CFEAFFEE50EECFF3FFEECFF4FF120085
:1041E000E8BC86EF22F0E9CFF6FFF3CFF7FFF86ED9
:1041F0000900F5500900F5CFF3FF0900F5CFF4FFF2
:10420000120000C0E5FF006A040108BF002A005048
:10421000D880E866D890006A0036005002E0095164
:1042200002E1006A02D0010E006E0050E4CF00F0FF
:104230001200F2CFEAFFF29EA69EA69CA684E9CFCA
:10424000A9FFE4CFA8FF5FEC22F0F4CFA8FF5FEC5A
:1042500022F0F6CFA8FF5FEC22F0A694EABEF28E21
:104260001200F2CFF6FFF29EA69EA69CE9CFA9FF10
:10427000A680A850A92AA680A8CFF3FFA92AA680C5
:10428000A8CFF4FFA92AA680A8CFEAFFF6BEF28E37
:1042900012006DB606D06D6A696A6D86010E060160
:1042A000636F06016351010A09E16DBA07D0686ABC
:1042B000696A69806988020E0601636F1200E8AEC0
:1042C00006D0F3CFEAFFEE50EECFF3FF1200E8BCCA
:1042D00084EF22F0E9CFF6FFF3CFF7FFF86E090085
:1042E000F5500900F5CFF3FF1200D0B202D0930EC3
:1042F000D012F29EF29C05EC22F006EC06F076EC71
:104300001FF067EC22F0DAEC1FF0E8EC13F0FDD7B9
:104310001200D9CFE5FFE1CFD9FF00C0E5FF020EC3
:10432000DBCF00F0005004E00050010A01E1C18839
:10433000E4CF00F0E4CFD9FF1200F2CFF6FFF29EF7
:10434000A69EA69CE9CFA9FFA680A850A92AA68070
:10435000A8CFF3FFA92AA680A8CFF4FFF6BEF28E5D
:1043600012001E0E716E400E0401096F800E0A6F5E
:10437000050E0B6F880E086FC00E0E6F050E0F6FC7
:10438000400E0C6F1200D9CFE5FFE1CFD9FF698451
:1043900068986D82A19AF290A08AF2860300A09A92
:1043A000F296E4CFD9FF1200E8AE04D0F3CFEAFFD3
:1043B000EE501200E8BC82EF22F0E9CFF6FFF3CF17
:1043C000F7FFF86E0900F5501200F2CFEAFFF29EF7
:1043D000A69EA69CA684E9CFA9FFE4CFA8FF5FEC28
:1043E00022F0A694EABEF28E1200F2CFF6FFF29E01
:1043F000A69EA69CE9CFA9FFA680A850A92AA680C0
:10440000A8CFF3FFF6BEF28E1200896A8A6A400EC8
:104410008B6E926A936A949094929494949C949ED6
:10442000806A816A826A120000C0E5FF006A70B08B
:10443000002A0050010A03E132EC22F07090689AE1
:10444000E4CF00F01200E8AE09D0F3CFEAFFE4CFEA
:10445000EEFFF4CFEEFFF6CFEEFF1200E8BC8CEFDC
:1044600022F012000601656B400E0401016F000E80
:10447000026F050E036F880E006F046B1200F2CFFF
:10448000F6FFF29EA69EA69CE9CFA9FFA680A850A3
:10449000F6BEF28E1200E8AE05D0F3CFEAFFE4CF0D
:1044A000EEFF1200E8BC8AEF22F01200A1AA06D0AB
:1044B000A19A40EC1FF0689C68906A6A1200550E41
:1044C000A76EAA0EA76EA682A6B2FED7A94A2F0E85
:1044D00092120A0EC16EBD0EC06E12000100040CD5
:1044E00000004806000003000000CB68040ECA6EFE
:1044F00012006D9269946894120001EC21F0120090
:10450000689C12003FEF22F0F5EF21F09DEF21F0C3
:0C45100031EF21F0E5EF21F019EF21F070
:00000001FF
